:020000040800F2
:10000000100D002025020008511600083B130008BF
:100010004D160008990A0008BB2B000800000000DC
:10002000000000000000000000000000C51E0008E5
:100030009D0A000800000000711C000879200008DB
:100040003F0200083F0200083F0200083F0200088C
:100050003F0200083F0200083F0200083F0200087C
:100060003F0200083F0200083F0200083F0200086C
:100070003F0200083F0200083F0200083F0200085C
:100080003F0200083F0200083F0200083F0200084C
:100090003F0200083F0200083F0200083F0200083C
:1000A0003F0200083F0200083F0200083F0200082C
:1000B000752100083F0200083F0200083F020008C7
:1000C0003F0200083F0200083F0200083F0200080C
:1000D0003F020008CD280008052900083F0200085B
:1000E0003F0200083F0200083F0200083F020008EC
:1000F0003F0200083F0200083F0200083F020008DC
:100100003F0200083F0200083F0200083F020008CB
:100110003F0200083F0200083F0200083F020008BB
:100120003F0200083F0200083F0200083F020008AB
:1001300000F002F800F067F80AA090E8000C824492
:100140008344AAF10107DA4501D100F05CF8AFF26F
:10015000090EBAE80F0013F0010F18BFFB1A43F0A5
:1001600001031847D0370000F037000010F8013BBA
:100170000A4413F0030408BF10F8014B1D1108BF17
:1001800010F8015B641E05D010F8016B641E01F8C5
:10019000016BF9D1002D15D010F8014B03F00C03C1
:1001A0000C2BA1EB04040ABF10F8013BA4EB831451
:1001B000A4EB032405F1010314F8016B5B1E01F8A5
:1001C000016BF9D5914238BF10F8013BD1D370478C
:1001D0000023002400250026103A28BF78C1FBD850
:1001E000520728BF30C148BF0B607047642900F038
:1001F000A580002070471FB59DE8030000F0C8FAF5
:100200001FBD10B510BD00F0C9FB1146FFF7F3FF8D
:1002100002F06EFE00F0E7FB03B4FFF7F2FF03BC51
:1002200000F014FC0948804709480047FEE7FEE754
:10023000FEE7FEE7FEE7FEE7FEE7FEE7FEE7FEE796
:1002400004480549054A064B70470000152100087F
:100250003101000810070020100D002010090020B7
:100260001009002070B5064600F076FA056806F120
:100270000B0020F00704B4429CBF002070BD2B4649
:100280006A68BAB11068A04210D304F1080188422C
:100290003CBF5068586007D351681019416011681D
:1002A000091B016058601460101D70BD1346526830
:1002B000002AE7D12146284600F056FA0028DED170
:1002C00070BD70B50446051F00F046FA0068002CAA
:1002D00014BF446870BD002C18BFAC423CBF204620
:1002E0006468F8D301680A18AA4218BF456003D1B0
:1002F0002A6805461144016028684119A1421CBFC3
:100300006C6070BD6168696021680844286070BDD8
:100310000FB41CB5084B06AA7B44694600900598AB
:1003200000F0CBFA04460020694600F0D9FA2046D6
:100330001CBC5DF814FB0000C50500002DE9F04170
:100340000646002410687529314616A510D0AFF373
:100350000080002802DA404213A507E031688A07CE
:1003600001D512A502E0490704D511A5012401E039
:10037000AFF3008000210A2206F1240709E0B0FB58
:10038000F2FCB0FBF2F302FB1C003030785418464C
:10039000491C0028F3D123462A463046BDE8F041E7
:1003A00000F02CBA000000002D0000002B0000001F
:1003B000200000002DE9F05F894604464FF0000A56
:1003C000DFF874B1FB44C0F820A02046E1688847FC
:1003D000002874D0252806D0D4E901219047206A4E
:1003E000401C2062F1E700265F462046E16888470E
:1003F0002028054607DB312D05D2781910F8200C8E
:1004000008B10643F1E7B00701D526F00406C4F8A9
:100410001CA00027C4F818A02A2D09D0284602F0F5
:10042000CDFC38B304EB8708303DC8F8185019E00C
:1004300059F8041B204604EB87029161E168884764
:10044000012F054618D1E069002820DA26F02006A1
:100450001DE0D8F8180000EB800005EB40003038B4
:10046000C8F818002046E1688847054602F0A6FC57
:100470000028EED1012F0AD02E2D08D12046E168A8
:1004800088477F1C0546022F46F02006C4DBA06982
:10049000002803DA404246F00106A061F00701D0CF
:1004A00026F010066C2D0BD0682D09D04C2D39D0BC
:1004B0006A2D35D0742D35D07A2D33D016E038E042
:1004C000E1682F4620468847B842054609D16C2F7F
:1004D00026D04FF48060E1680643204688470546F1
:1004E00004E06C2F1AD04FF4807006430DB3A5F1D1
:1004F0004100192802D8203546F400664A462946AC
:10050000204626604E46FFF771FE80B101280BD0D1
:10051000F61D26F0070000F1080956E74020E4E741
:100520008020D8E70020D6E706F104094DE72846E9
:1005300052E7206ABDE8F09F58350000401ECAB25D
:1005400010F8011F8A4202D00029F9D1002070471B
:1005500010B5431E13F8014F002CFBD105E011F834
:10056000014B002C03F8014B03D0521EF7D200219F
:10057000197010BD30B505460B462A4613F8014BDD
:1005800012F8010B08B1A042F8D01CB1002802D02B
:100590006D1CF1E7284630BD40EA0103024630B544
:1005A0009B0710D14FF0013400E008C208C91D1BA1
:1005B0009D4315EAC41FF8D013F0FF0102F8011B98
:1005C0000DD01B0AF8E711F8013B002B02F8013BA4
:1005D00005D011F8013B002B02F8013BF3D130BDEF
:1005E00010B5431C02E010F8011B71B18107FAD16C
:1005F0004FF0013202C88C1A8C4314EAC211F9D0B0
:10060000C01A0A0603D0C01E10BDC01A10BD0A04CD
:1006100001D0801E10BD0902FCD0401E10BD421E3C
:1006200012F8013F002BFBD111F8013B002B02F81F
:10063000013BF9D17047032A40F2308010F0030CDF
:1006400000F0158011F8013BBCF1020F624498BF25
:1006500011F801CB00F8013B38BF11F8013BA2F1C2
:10066000040298BF00F801CB38BF00F8013B11F03D
:10067000030300F03A81083AC0F0088051F8043BC7
:10068000083A51F804CBA0E80810F5E7121D5CBF4A
:1006900051F8043B40F8043BAFF30080D20724BF7D
:1006A00011F8013B11F801CB48BF11F8012B24BF11
:1006B00000F8013B00F801CB48BF00F8012B704760
:1006C0004FF000020429C0F0128010F0030C00F07B
:1006D0001B80CCF1040CBCF1020F18BF00F8012BF9
:1006E000A8BF20F8022BA1EB0C0100F00DB85FEAC7
:1006F000C17C24BF00F8012B00F8012B48BF00F893
:10070000012B70474FF0000200B513469446964601
:10071000203922BFA0E80C50A0E80C50B1F1200114
:10072000BFF4F7AF090728BFA0E80C5048BF0CC0C2
:100730005DF804EB890028BF40F8042B08BF704720
:1007400048BF20F8022B11F0804F18BF00F8012B92
:10075000704770477047704700487047B8060020E0
:10076000704770477047704738B504460A46002006
:100770006946AFF30080002808BF38BD02460099E3
:10078000204600F0E9F8012038BD012000F0FEB855
:10079000F8B5AFF30080054600200C46102000BFDE
:1007A0000646A819A0420DD9324669460020AFF38B
:1007B0000080070008BF00F0E9F80098A04218BFC9
:1007C0000546C419FFF7C8FF05600746F01D20F075
:1007D00007004619284600F00AF8B44208BFF8BDE1
:1007E000A21B31463868BDE8F84000F0B5B80021DA
:1007F0000160C0E901107047102070472DE9F047F3
:100800000D4699469246044600F124080168880680
:1008100004D5E06921F01001216000E00120A84228
:1008200001DD471B00E00027A1697A1902EB0900EE
:10083000081AA0612078C00602D42046AFF30080D9
:10084000002608E0D4E901211AF806009047206A42
:10085000401C761C20624E45F4DB2078C0060AD589
:100860002046AFF3008006E0D4E901213020904714
:10087000206A401C2062381EA7F10107F4DC07E063
:10088000D4E9012118F805009047206A401C206235
:10089000281EA5F10105F3DC2046AFF30080207887
:1008A000000602D50220BDE8F0870120FBE700002A
:1008B00001694A1C02610878704700B58FB0CDE924
:1008C00001310021059105497944CDE90310114614
:1008D0006846FFF76FFD0FB000BD0000E5FFFFFFAA
:1008E0000A6802F8010B0A60704710B5203AC0F0A0
:1008F0000B80B1E81850203AA0E81850B1E8185021
:10090000A0E81850BFF4F5AF5FEA027C24BFB1E85D
:100910001850A0E8185044BF18C918C0BDE81040CE
:100920005FEA827C24BF51F8043B40F8043B08BFD7
:100930007047D20728BF31F8023B48BF11F8012B9E
:1009400028BF20F8023B48BF00F8012B7047000089
:1009500000487047B0060020034640688C460028D7
:1009600018BF88423CBF03464068F8D31868184453
:10097000884207D00CF1030020F00700001D411A47
:10098000521A0146081D0A60FFF79BBC10B500F023
:1009900035F8BDE8104000F02CB870477546FFF7F9
:1009A000D7FFAE4605006946534620F0070085464E
:1009B00018B020B5FFF744FCBDE820404FF000061A
:1009C0004FF000074FF000084FF0000B21F0070137
:1009D000AC46ACE8C009ACE8C009ACE8C009ACE87A
:1009E000C0098D4670470446AFF300802046FFF7EC
:1009F00013FC002801D000F029B8704710B5012879
:100A000005D0002103A000F027F8012010BD09A1A6
:100A1000F8E7000053494752544D454D3A204F7571
:100A200074206F662068656170206D656D6F7279E6
:100A3000000000003A2048656170206D656D6F729E
:100A40007920636F727275707465640001491820B3
:100A5000ABBEFEE72600020070B505460C460A2034
:100A600000E06D1C00F011F835B128780028F8D1AD
:100A700002E0641C00F009F814B120780028F8D1D5
:100A8000BDE870400A20AFF3008008B569468DF8D4
:100A900000000320ABBE08BD00BFFEE7704710B5E5
:100AA0000446207B012802D12068FFF70AFC0020C1
:100AB00020606060A060207310BD70B504460E46D3
:100AC0000025206898B9012020733046FFF7CAFB43
:100AD00020602068E0B100206060A66003E0002094
:100AE000216848556D1CA068A842F8D810E0022083
:100AF000207303E00020216848556D1CA068A842BF
:100B0000F8D800206060A068B04201D200202060C8
:100B100070BD2DE9F04780460E4691461D46089C63
:100B200070190DB1062100E002214718791D2046F9
:100B3000FFF7C3FF206810B90120BDE8F087B0219E
:100B40006268501C606020688154A1888AB239466E
:100B5000206802F0C4F8616808446060311262687D
:100B6000501C6060206881546268501C606020687E
:100B70008654D4E90012881832464146FFF75BFDDF
:100B800060683044606015B3290E6268501C606074
:100B900020688154C5F307416268501C606020687A
:100BA0008154C5F307216268501C6060206881543D
:100BB0006268501C606020688554D4E9001288186F
:100BC0002A464946FFF737FD6068284460600020E8
:100BD000B3E700002DE9F0478046894617461C46DA
:100BE0004046FFF7FDFCC5B24846FFF7F9FCC6B228
:100BF00038212046FFF761FF206810B90120BDE8C9
:100C0000F0871020216808706068401C606005F162
:100C10000D003044216848706068401C606000200E
:100C20002168887003202168C8706068801C60603B
:100C30002168081D032221A1FFF78AFC6068C01CFF
:100C4000606001202168C8716068401C60604020BD
:100C5000216808726068401C6060380A2168487228
:100C600021688F726068801C606000202168C872F3
:100C700021680D736068801C6060216801F10D00BF
:100C80002A464146FFF764FC606828446060002102
:100C900005F10D0022681154401C2268165460684A
:100CA000801C606021680F31481932464946FFF7C1
:100CB0004FFC6068304460600020A0E7454450006D
:100CC0002DE9F84F81460D4617461E460A9C002026
:100CD00000904846FFF784FC00F0FF08022E03D185
:100CE00017B90120BDE8F88F022E09D13846FFF769
:100CF00077FC00F10F0A51462046FFF7DEFE04E0C4
:100D000005F118012046FFF7D8FE206808B9022037
:100D1000E8E780216268501C606020688154B9F166
:100D2000000F3ED0022E06D13846FFF759FC0C309A
:100D30002844009003E005F1080040440090A18899
:100D40008AB22068009901F0CAFF616808446060B7
:100D5000C0216268501C6060206881540021626874
:100D6000501C6060206881546168481C6060206885
:100D700000F80180D4E90012881842464946FFF77E
:100D8000E7FB60684044606055216268501C606009
:100D900020688154AA216268501C606020688154D8
:100DA00025E0022E06D13846FFF71AFC0A30284407
:100DB000009001E0A81D0090A1888AB220680099E7
:100DC00001F08DFF61680844606040216268501C3A
:100DD00060602068815455216268501C6060206802
:100DE0008154AA216268501C606020688154616847
:100DF000481C606020684654022E3AD13846FFF7FE
:100E0000EFFB00F0FF0A4FF0000B00216268501C5E
:100E10006060206881546168481C6060206800F848
:100E200001A00AE017F80B106268501C606020688F
:100E300081540BF1010000F0FF0BD345F2DB290ECA
:100E40006268501C606020688154C5F30741626885
:100E5000501C606020688154C5F307216268501CF3
:100E60006060206881546268501C6060206885540E
:100E70000BE0C5F307216268501C60602068815454
:100E80006268501C60602068855400202AE72DE9C4
:100E9000F84305460E4617469846DDF82090002098
:100EA000009000242046641C285CA02802D0012069
:100EB000BDE8F883A2B26946284600F0BDFF0446AB
:100EC000601C08B90220F3E7601C285C295D40EA39
:100ED00001203880A41C3988481CFFF7C3F9306012
:100EE000306808B90320E3E73A88511C3068FFF7FF
:100EF000E7FB3A8829193068FFF79DFB38880444DE
:100F0000285D0106601C285C41EA0041A01C285CA9
:100F100041EA0020E11C695C0843C9F80000241D77
:100F2000D9F80010481CFFF79DF9C8F80000D8F860
:100F3000000020B93068FFF7C4F90420B8E7D9F8F9
:100F40000020511CD8F80000FFF7BAFB2919D9F886
:100F50000020D8F80000FFF76EFBD9F80000044429
:100F60000020A5E70146C878704701460878704719
:100F700010B580210348FFF7A3FB00200249088039
:100F800010BD00002E0600201A06002070B5054690
:100F9000002400BF00F01AF980B90DA10E48FFF738
:100FA000E9FA044654B13A212046FFF7C7FA04464D
:100FB00014B1641C204670BD0020FCE7052001F040
:100FC00031FF2800A5F101018DB2E3D100BFF2E7A6
:100FD0004950442C000000002E06002008B50121D5
:100FE000042000F09FFE10208DF803008002ADF871
:100FF000000003208DF802006946284800F000F93F
:1010000000224FF48041254800F092F94FF4FA7025
:1010100001F008FF01229103204800F089F94FF404
:10102000FA7001F0FFFEFFF7A3FF03E04FF4FA7040
:1010300001F0F8FE1AA11BA000F07AF80028F5D103
:1010400003E04FF4FA7001F0EDFE15A117A000F0D7
:101050006FF80028F5D103E04FF4FA7001F0E2FEDA
:101060000FA116A000F064F80028F5D103E04FF4BA
:10107000FA7001F0D7FE15A116A000F059F800286B
:10108000F5D103E04FF4FA7001F0CCFE1CA11EA0D4
:1010900000F04EF80028F5D108BD00000010014016
:1010A0004F4B000041540D0A0000000041542B43F7
:1010B000574D4F44453D310D0A00000041542B432C
:1010C00057444843503D312C310D0A00474F5420BE
:1010D0004950000041542B43574A41503D2254652A
:1010E0006E64615F353835393730222C2231393919
:1010F000376865736F6E676661220D0A0000000035
:10110000434F4E4E4543540041542B434950535492
:101110004152543D22544350222C223138332E3236
:1011200033302E34302E3339222C3837360D0A0026
:101130002DE9F04104460D46C8262046FFF750FA37
:1011400087B23A4621460D4801F090FD0FE000F0CD
:101150003DF848B929460A48FFF70CFA20B1FFF7D5
:1011600007FF0020BDE8F0810A2001F05BFE30009F
:10117000A6F10101CEB2EAD10120F3E7004400401C
:101180002E06002030B589B004460D46FFF7F0FE6C
:101190002A4608A101A8FFF7BBF80AA101A8FFF79A
:1011A000C7FF20B92A462146074801F05FFD09B074
:1011B00030BD000041542B43495053454E443D251A
:1011C000640D0A003E000000004400400A48008808
:1011D00008B90120704708480088084909888842F2
:1011E00003D1002004490880F4E70348008803493C
:1011F00008800120EEE700001A0600201C060020EF
:101200002DE9F0410246002500260020002300249D
:10121000002791F803C00CF00F0591F803C00CF003
:10122000100CBCF1000F03D091F802C04CEA050588
:1012300091F800C0BCF1000F31D0146800202BE001
:101240004FF0010C0CFA00F3B1F800C00CEA0306F1
:101250009E4220D183004FF00F0C0CFA03F7BC43E1
:1012600005FA03FC4CEA040491F803C0BCF1280F12
:1012700006D14FF0010C0CFA00FCC2F814C00AE0D1
:1012800091F803C0BCF1480F05D14FF0010C0CFAE6
:1012900000FCC2F810C0401C0828D1D31460B1F87B
:1012A00000C0BCF1FF0F34DD546800202EE000F1D7
:1012B000080C4FF0010808FA0CF3B1F800C00CEA72
:1012C00003069E4221D183004FF00F0C0CFA03F766
:1012D000BC4305FA03FC4CEA040491F803C0BCF1DA
:1012E000280F05D100F1080C08FA0CF8C2F8148098
:1012F00091F803C0BCF1480F07D100F1080C4FF082
:10130000010808FA0CF8C2F81080401C0828CED357
:101310005460BDE8F0810246002093680B400BB199
:10132000012000E000207047416170470161704773
:101330000AB1016100E04161704700BFFEE710B5EE
:101340004FF4A06000F0BEF901F04AFD4FF4E13027
:1013500001F036FC01F0DAFC00F0C0F800F08EFE7F
:1013600000F00EFC01F0AAFD00F0D8F910BD00005D
:1013700008B50121042000F0D5FC4FF4C050ADF8B1
:10138000000010208DF8030003208DF8020069464C
:101390000448FFF735FF0120034908600349C1F8FD
:1013A000AC0108BD00080140B0012142000021420B
:1013B00070B504461948006820F470401749086069
:1013C0000846006840F440500860002521E004F021
:1013D000800028B14FF4006010490C31086004E02F
:1013E0004FF400600D49103108606006040E4FF4A0
:1013F00080500A490C310860022001F039FD4FF499
:101400008050064910310860022001F031FD681C4F
:10141000C5B2082DDBDB00F02FFD70BD04080140D4
:1014200010B51248006820F4704010490860084662
:10143000006840F440500860C8140C490C31086042
:1014400040000860022001F013FD4FF400600749DE
:1014500010310860022001F00BFD4FF48050034969
:1014600010310860022001F003FD10BD04080140A6
:1014700010B50F48006820F470400D490860084618
:10148000006840F440500860881409491031086031
:1014900040100860022001F0EBFC4FF4805004493A
:1014A0000C31086040100860022001F0E1FC10BD22
:1014B0000408014010B504464021074801F048FAED
:1014C0002146054801F075FB00BF4021024801F0AC
:1014D000A3FA0028F9D010BD0048004010B500F074
:1014E00061F84FF47A7001F070FCAA20FFF7E2FF78
:1014F0000B20FFF7DFFF0120FFF7DCFF0220FFF7E3
:10150000D9FFB820FFF7D6FF4FF47A7001F05DFCE9
:10151000AA20FFF7CFFF1320FFF7CCFF0120FFF732
:10152000C9FF1E20FFF7C6FFDC20FFF7C3FF40F214
:10153000DC5001F04AFCAA20FFF7BCFF1320FFF7A4
:10154000B9FF0120FFF7B6FF1E20FFF7B3FFDC2035
:10155000FFF7B0FF40F2DC5001F037FC10BD70B572
:101560000446002504F1B300C5B2AA20FFF7A2FF8C
:101570000720FFF79FFF0220FFF79CFF0020FFF7E7
:1015800099FFE0B2FFF796FF2846FFF793FF70BD83
:1015900010B54FF400510248FFF7BDFE10BD00002A
:1015A0000010014000B585B00121880400F09AFBCD
:1015B0000121082000F0B6FB0121102000F0B2FB51
:1015C0004FF48060ADF8100003208DF81200182051
:1015D0008DF8130004A91A48FFF712FE4FF40060BB
:1015E000ADF8100004208DF8130004A91448FFF78B
:1015F00007FE4FF40050ADF8100003208DF81200E4
:1016000028208DF8130004A90E48FFF7F9FD4FF4C8
:10161000165000900020ADF80400ADF80600ADF8BB
:101620000800ADF80C000C20ADF80A006946064829
:1016300001F04EFA0121044801F093F905B000BD14
:10164000000C0140001001400048004000BFFEE7D0
:101650007047000070B5002100230F22C47804B346
:10166000154C246804F4E064C4F5E064210AC1F177
:101670000403CA40447804FA03F1847814402143F7
:1016800009010E4C0678A155047804F01F050124C9
:10169000AC4005786D11AD0005F1E025C5F80041BD
:1016A00009E0047804F01F050124AC40044D0678DD
:1016B000761145F8264070BD0CED00E000E400E036
:1016C00080E100E002490143024A116070470000D6
:1016D0000000FA050CED00E010B5002000F001F864
:1016E00010BD70B50646002415E004F1B001C8B283
:1016F00001F0D5FA002001F0D2FA102001F0CFFA63
:10170000002504E0304601F0DAFA681CC5B2802DED
:10171000F8DB601CC4B2082CE7DB70BD10B5FFF726
:1017200027FE642001F07EFBAE2001F0B8FA2020F5
:1017300001F0B5FA102001F0B2FAB02001F0AFFAD2
:10174000C82001F0ACFA002001F0A9FA102001F045
:10175000A6FA402001F0A3FA812001F0A0FAFF20B0
:1017600001F09DFAA12001F09AFAA62001F097FA63
:10177000A82001F094FA3F2001F091FAA42001F092
:101780008EFAD32001F08BFA002001F088FAD520E0
:1017900001F085FAF02001F082FAD92001F07FFAF9
:1017A000222001F07CFADA2001F079FA122001F00F
:1017B00076FADB2001F073FA202001F070FA8D2018
:1017C00001F06DFA142001F06AFAAF2001F067FA17
:1017D00010BD70B504460D4605F1B001C8B201F068
:1017E0005EFA102141EA141001F059FA04F00F01D9
:1017F00041F0010001F053FA70BD2DE9F047814638
:101800000F461646984600244FEA48153946484682
:10181000FFF7DFFF00BF05E0705D01F050FA6D1CBF
:10182000601CC4B2102CF7DB781CC1B24846FFF72D
:10183000D0FF002405E0705D01F041FA6D1C601CD2
:10184000C4B2102CF7DBBDE8F08700002DE9F047AB
:101850000646894617469A464FF0000800240025A0
:10186000BAF1010F03D0BAF1020F5ED125E020E0FA
:10187000785D203800F0FF087E2E04DD002609F197
:10188000010000F0FF0949463046FFF7A2FF00249F
:1018900009E008EB4801264A02EB4101085D01F02E
:1018A0000EFA601CC4B2062CF3DBB01DC6B2681C75
:1018B000C5B2785D0028DBD137E032E0785D2038B2
:1018C00000F0FF08782E04DD002609F1010000F089
:1018D000FF0949463046FFF77CFF002407E004EB90
:1018E0000811144A505C01F0EAF9601CC4B2082CDB
:1018F000F5DB09F10100C1B23046FFF76AFF0024B1
:1019000008E004EB081108310A4A505C01F0D7F9ED
:10191000601CC4B2082CF4DB06F10800C6B2681CD7
:10192000C5B2785D0028C9D100BF00BFBDE8F0870F
:1019300008310008303300087FB500200090019086
:101940000290039001256B462A021BA122A0FFF7FB
:1019500041F950BB019A91B20098FFF713FCFA20AD
:10196000FFF714FB0446ECB12046FFF7FEFA2028EF
:1019700018D12046FFF7F6FA0A2811D2DFE800F066
:10198000050708090A0B0C0D0E0F002509E008E0F9
:1019900007E006E005E004E003E002E001E000E02B
:1019A00000BF00BF6846FFF77AF815B1012004B008
:1019B00070BD0020FBE70000394F386230746E6F55
:1019C0006D4D6B336C6C6D7572366A365A72616927
:1019D0004653453D00000000353736353930333940
:1019E000300000001FB504460020009001900290D6
:1019F00003900CA12046FEF7CFFD0020009001903F
:101A000002900390084809A102686846FEF780FC2E
:101A100069462046FEF703FE2046FEF7E1FDC0B210
:101A200004B010BD2C3B00002006002066656E67E8
:101A30007368616E2C25643B0000000070B58AB0AD
:101A400004460020069007900890099005900490A5
:101A500003900290002600252046FFF786FA0646EE
:101A6000902E15D0A02E1BD102A803AB04AA05A965
:101A700000902046FFF70BFA054645B906A80090EE
:101A8000BDF81010DDE902320598FFF742F80AE0D0
:101A9000E078552802D12079AA2800D003E000BFC1
:101AA0004FF0FF3500BF00BFFFF762FA681C08B9AE
:101AB0000AB070BD12A10398FEF75CFD18B10221B7
:101AC0001248FFF733FC12A10398FEF753FD18B13B
:101AD00002210E48FFF728FCA02E0ED16DB9059803
:101AE000FEF7EFFB0398FEF7ECFB079A91B206981E
:101AF000FFF748FB06A8FEF7D2FF00BFD8E70000BB
:101B000066656E677368616E310000000008014011
:101B100066656E677368616E3000000030B5A5B011
:101B200000202190229023902490002400258021E1
:101B300001A8FEF7E7FD01A8FFF754FF0446E4B152
:101B400021A805230022214600901046FFF7B8F88F
:101B500098B908E001A8415D229A501C2290219872
:101B60008154681C05B2A542F4DB229A91B22198F7
:101B7000FFF708FB21A8FEF792FF25B030BD00005B
:101B800000B589B00121082000F0CCF80121042023
:101B900000F0A8F80121084600F0C4F84FF4707076
:101BA000ADF8040003208DF8060018208DF807001A
:101BB00001A92D48FFF724FB4FF400712A48FFF7D5
:101BC000B3FB42F20F70ADF81C008F20ADF8180087
:101BD0000020ADF81E00ADF81A0006A9234800F059
:101BE00023FE6020ADF808000120ADF80A000020B7
:101BF000ADF8100002A91D4800F0B2FC02A91B4874
:101C000000F004FD02A9194800F060FD02A9174880
:101C100000F0B6FD0821154800F0EEFC082113483D
:101C200000F046FD0821114800F0A0FD08210F48F2
:101C300000F0E4FD01210D4800F088FB4FF42F7106
:101C40000A4800F0E8FD4FF49671084800F0E5FD01
:101C50004FF4C871054800F0E2FD4FF49671034857
:101C600000F0DFFD09B000BD000C0140000800409D
:101C70007047000010B5FF20FFF733FD4FF4FA70F6
:101C800001F0D0F80020FFF72CFD4FF4FA7001F0BE
:101C9000C9F8FFF721FD00F09FF900F0B1F9022328
:101CA0000DA219462020FFF7D1FD00F0BDF9022357
:101CB0000AA219465620FFF7C9FD00F079F9022360
:101CC00005A204212020FFF7C1FD022304A2042164
:101CD0004820FFF7BBFD10BD3A00000043000000A4
:101CE0002550480029B1064AD2690243044BDA6103
:101CF00004E0034AD2698243014BDA617047000075
:101D00000010024029B1064A12690243044B1A61CD
:101D100004E0034A12698243014B1A6170470000D4
:101D20000010024029B1064A92690243044B9A61AD
:101D300004E0034A92698243014B9A6170470000B4
:101D40000010024029B1064AD2680243044BDA600F
:101D500004E0034AD2688243014BDA607047000016
:101D60000010024030B500210022002400232D4D38
:101D70006D6805F00C0121B1042905D0082923D193
:101D800005E0294D056022E0274D05601FE0254D47
:101D90006D6805F47012234D6D6805F480340225DA
:101DA00005EB92421CB9214D554305600BE01D4DDA
:101DB0006D6805F400351DB11C4D5543056002E00A
:101DC000194D5543056002E0174D056000BF00BF87
:101DD000144D6D6805F0F0010909154D6B5C05683F
:101DE000DD4045600F4D6D6805F4E061090A104D56
:101DF0006B5C4568DD4085600A4D6D6805F4605197
:101E0000C90A0B4D6B5C4568DD40C560054D6D68CA
:101E100005F44041890B074D6B5CC568B5FBF3F5D4
:101E2000056130BD0010024000127A0000093D003B
:101E3000E8050020F8050020F0B50346012400263F
:101E400000250020086000BF1046571CBAB21D5C78
:101E500005F07F07086807FB04000860E401761CB2
:101E6000042E02D94FF0FF30F0BD05F080000028AD
:101E7000EAD11046F8E7000010B51148006820F4D8
:101E800070400F4908600846006840F40040086050
:101E900088140B490C310860022000F0E9FF084863
:101EA000001D00680020C0F346044FF48050044930
:101EB00010310860022000F0DBFF204610BD00005A
:101EC00004080140704710B500F002F810BD000092
:101ED0000CB50020019000903348006840F4803039
:101EE0003149086000BF3048006800F400300090BD
:101EF0000198401C0190009818B90198B0F5A06FA6
:101F0000F1D12948006800F4003010B101200090A0
:101F100001E0002000900098012843D12348006888
:101F200040F01000214908600846006820F00300D6
:101F300008600846006840F0020008601A484068DF
:101F4000194948600846406848600846406840F4BF
:101F5000806048600846406820F47C10486008466D
:101F6000406840F4E81048600846006840F080701F
:101F7000086000BF0C48006800F000700028F9D02D
:101F80000948406820F00300074948600846406857
:101F900040F00200486000BF0348406800F00C00B9
:101FA0000828F9D10CBD00000010024000200240BA
:101FB00010B500240AE0002101EB0411C8B2234649
:101FC000044A0421FFF719FC601CC4B2022CF2DBA6
:101FD00010BD0000A804002010B500240AE019215B
:101FE00001EB0411C8B22346044A0021FFF705FCA7
:101FF000601CC4B2052CF2DB10BD0000E803002019
:1020000010B500240AE0002101EB0411C8B22346F8
:10201000044A0221FFF7F1FB601CC4B2022CF2DB80
:1020200010BD00006803002010B500240AE04B2119
:1020300001EB0411C8B22346044A0221FFF7DDFB7D
:10204000601CC4B2012CF2DB10BD0000880400202B
:10205000042808D14FF0E021096941F004014FF054
:10206000E022116107E04FF0E021096921F004014D
:102070004FF0E02211617047704700001FB5012149
:102080000846FFF72FFE4FF0804000F06BF9282044
:10209000ADF8080048F69F40ADF804000020ADF808
:1020A0000A00ADF8060001A94FF0804000F0BCFB2B
:1020B0000121880700F044F94FF4A060FFF702FB0C
:1020C0001C208DF8000002208DF801008DF8020020
:1020D00001208DF803006846FFF7BCFA0122114683
:1020E000900700F033FA0121880700F02FF9002053
:1020F000014908801FBD0000240600200246107818
:102100000B78984203D008781070012070470020A7
:10211000FCE7000010B51348006840F001001149C9
:10212000086008464068104908400E494860084663
:1021300000680E4908400B4908600846006820F412
:10214000802008600846406820F4FE0048604FF494
:102150001F008860FFF7B7FE4FF000600449086079
:1021600010BD0000001002400000FFF8FFFFF6FE67
:1021700008ED00E010B50121880700F0E4F86E4892
:102180000068401C6C490860084600684EF66021F3
:10219000884202DD00206849086068480078401CD9
:1021A00066490870087800EBD0714910A0EB410136
:1021B000624A117060480068052190FBF1F201FB52
:1021C000120060B95D484078401C5C49487048780E
:1021D00000EBD0714910A0EB4101584A51705648AC
:1021E0000068192190FBF1F201FB120060B953481D
:1021F0008078401C51498870887800EBD071491074
:10220000A0EB41014D4A91704B480068322190FB90
:10221000F1F201FB120060B94848C078401C474900
:10222000C870C87800EBD0714910A0EB4101434A57
:10223000D17041480068642190FBF1F201FB12006B
:1022400060B93E480079401C3C490871087900EBB0
:10225000D0714910A0EB4101384A1171364800682D
:10226000FA2190FBF1F201FB120060B9334840798A
:10227000401C32494871487900EBD0714910A0EBFD
:1022800041012E4A51712C4800684FF4FA7190FBBD
:10229000F1F201FB120060B928488079401C2749FF
:1022A0008871887900EBD0714910A0EB4101234A75
:1022B00091712148006840F6B83190FBF1F201FBC2
:1022C000120060B91D48C079401C1C49C871C8790A
:1022D00000EBD0714910A0EB4101184AD1711648AA
:1022E000006843F6982190FBF1F201FB120060B9FF
:1022F0001248007A401C11490872087A00EBD0712C
:102300004910A0EB41010D4A11720B48006847F2D9
:10231000305190FBF1F201FB120060B90748407A9E
:10232000401C06494872487A00EBD0714910A0EB76
:102330004101024A517210BD040000202406002011
:10234000CA4302827047CA430282704721B10288A1
:1023500042F00102028004E002884FF6FE731A4048
:102360000280704710B504466848844208D10121B4
:10237000C014FFF7E7FC0021E014FFF7E3FCC4E022
:10238000B4F1804F08D101210846FFF7BBFC0021C2
:102390000120FFF7B7FCB8E05D48844208D1012175
:1023A0000220FFF7AFFC00210220FFF7ABFCACE0FE
:1023B0005848844208D101210420FFF7A3FC0021E2
:1023C0000420FFF79FFCA0E05348844208D101217C
:1023D0000820FFF797FC00210820FFF793FC94E00A
:1023E0004E48844208D101211020FFF78BFC0021C8
:1023F0001020FFF787FC88E04948844208D101217A
:102400002020FFF77FFC00212020FFF77BFC7CE0F1
:102410004448844208D101214014FFF793FC002175
:102420006014FFF78FFC70E03F48844209D101211E
:10243000C804FFF787FC00214FF40020FFF782FC5F
:1024400063E03A48844209D101210805FFF77AFC8C
:1024500000214FF48010FFF775FC56E034488442A9
:1024600009D101214805FFF76DFC00214FF4001050
:10247000FFF768FC49E02F48844208D10121402041
:10248000FFF740FC00214020FFF73CFC3DE02A48DC
:10249000844208D101218020FFF734FC00218020F4
:1024A000FFF730FC31E02548844208D10121801536
:1024B000FFF728FC0021A015FFF724FC25E02048A9
:1024C000844209D101210804FFF73CFC00214FF4AC
:1024D0008030FFF737FC18E01A48844209D1012107
:1024E0004804FFF72FFC00214FF40030FFF72AFCCF
:1024F0000BE01548844208D101218804FFF722FC33
:1025000000214FF48020FFF71DFC10BD002C01407E
:102510000004004000080040000C00400010004093
:102520000014004000340140004C014000500140C4
:102530000054014000180040001C004000200040F2
:102540000040014000440140004801401AB1838925
:102550000B43838102E083898B43838170470000B2
:1025600070B5002400220023058C4FF6FE7635401E
:102570000584028C8388048B4FF68F752C40B51E22
:102580002C400D882C43751E2A400D892A434D8806
:102590002A43144DA8420BD0134DA84208D0134D26
:1025A000A84205D0124DA84202D0124DA84213D124
:1025B0004FF6F7752A404D892A434FF6FB752A409E
:1025C0008D882A434FF6FF652B404FF6FF552B4071
:1025D0008D892B43CD892B4383800483CD888586C9
:1025E000028470BD002C01400034014000400140D5
:1025F00000440140004801400A460021018B4FF68B
:10260000F7731940114301837047000070B500242F
:1026100000220023058C4FF6EF7635400584028CAE
:102620008388048B48F6FF752C404FF6FF452C40FD
:102630000D884FF6FF7606EA05252C434FF6DF7529
:102640002A400D8906EA05152A434D8806EA051534
:102650002A43154DA84202D0144DA8421DD14FF671
:102660007F752A404D894FF6FF7606EA05152A4305
:102670004FF6BF752A408D8806EA05152A434FF6A6
:10268000FF352B404FF2FF752B408D8906EA8505FB
:102690002B43CD8906EA85052B4383800483CD88AF
:1026A0000587028470BD0000002C01400034014009
:1026B0000A460021018B4FF2FF7319404FF6FF735A
:1026C00003EA0223194301837047000070B5002418
:1026D00000220023058C4FF6FF6635400584028CEE
:1026E0008388848B4FF68F752C404FF6FC752C40F9
:1026F0000D882C434FF6FF552A400D894FF6FF7683
:1027000006EA05252A434D8806EA05252A43154D84
:10271000A84202D0144DA8421DD14FF2FF752A40A5
:102720004D894FF6FF7606EA05252A434FF6FF3519
:102730002A408D8806EA05252A434EF6FF752B4070
:102740004DF6FF752B408D8906EA05152B43CD8983
:1027500006EA05152B4383808483CD888587028410
:1027600070BD0000002C0140003401400A460021E9
:10277000818B4FF6F7731940114381837047000036
:1027800070B5002200230024058C4EF6FF763540FC
:102790000584038C8488828B48F6FF752A404FF6A7
:1027A000FF452A400D884FF6FF7606EA05252A43A5
:1027B0004DF6FF752B400D8906EA05352B434D88F4
:1027C00006EA05352B430B4DA84202D00A4DA8421C
:1027D00008D14BF6FF752C408D894FF6FF7606EA3F
:1027E00085152C4384808283CD88A0F840500384D3
:1027F00070BD0000002C0140003401400A46002159
:10280000818B4FF2FF7319404FF6FF7303EA0223E7
:10281000194381837047818670470187704781879C
:102820007047A0F840107047002202881D4B984264
:102830000ED01D4B98420BD0B0F1804F08D01B4BEF
:10284000984205D01A4B984202D01A4B984204D1B4
:102850004FF68F731A404B881A43174B984207D094
:10286000164B984204D04FF6FF431A40CB881A43C8
:1028700002808B8883850B8803850A4B98420BD096
:10288000094B984208D00E4B984205D00D4B984208
:1028900002D00D4B984201D10B7A0386012383822B
:1028A00070470000002C014000340140000400404B
:1028B00000080040000C00400010004000140040E0
:1028C00000400140004401400048014010B5002490
:1028D00040F22551084800F0ACF858B1064800F025
:1028E00063F9C4B20548007820B905480470012096
:1028F0000249087010BD00000038014001000020AE
:102900000000002010B540F225510E4800F091F86B
:10291000B0B10D480088802802D300200A49088001
:102920000848001D0088C1B2074802880088401C82
:10293000054B1880054881542021024800F008F812
:1029400010BD0000004400401A0600202E060020A2
:1029500001F40072B2F5007F00D100BFCA430280CB
:10296000704721B1828942F40052828104E0828959
:102970004DF6FF731A4082817047000010B504467F
:102980002048844209D101218803FFF7DBF90021A7
:102990004FF48040FFF7D6F932E01B48844209D15A
:1029A00001214804FFF7AEF900214FF40030FFF792
:1029B000A9F925E01548844209D101218804FFF7CF
:1029C000A1F900214FF48020FFF79CF918E010488E
:1029D000844209D10121C804FFF794F900214FF482
:1029E0000020FFF78FF90BE00A48844208D101214B
:1029F0000805FFF787F900214FF48010FFF782F9EF
:102A000010BD000000380140004400400048004074
:102A1000004C00400050004002460020B1F5007F0D
:102A200000D100BF13880B400BB1012000E0002053
:102A3000704770B50246002400230025002040F6B0
:102A40006A16B14200D100BFC1F3421501F01F0365
:102A5000012606FA03F3012D02D19689334006E0E0
:102A6000022D02D1168A334001E0968A33400C12BF
:102A7000012606FA04F41688344013B10CB1012083
:102A800000E0002070BDF0B50346002400260025BC
:102A9000002040F66A17B94200D100BF1846C1F3C2
:102AA000421401F01F06012707FA06F5012C01D197
:102AB0000C3004E0022C01D1103000E014301AB1C7
:102AC00007682F43076002E00768AF430760F0BD67
:102AD0002DE9F04786B005460E460024A24600BF09
:102AE000A1460027B08900B100BF2F462C8A4CF6C2
:102AF000FF700440F08804432C82AC894EF6F3103A
:102B00000440B08831890843718908430443AC818B
:102B1000AC8A4FF6FF400440B0890443AC8201A860
:102B2000FFF720F91F48874202D1DDF810A001E02D
:102B3000DDF80CA0A88900F4004040B10AEBCA00FF
:102B400000EB0A1031684900B0FBF1F807E00AEB2E
:102B5000CA0000EB0A1031688900B0FBF1F864206C
:102B6000B8FBF0F004012009642101FB1089A88959
:102B700000F4004040B1322000EBC900B0FBF1F09E
:102B800000F00700044308E0322000EB0910642144
:102B9000B0FBF1F000F00F0004432C8106B0BDE85B
:102BA000F08700000038014001468888C0F3080023
:102BB0007047C1F308028280704700BFFEE7000043
:102BC00010B586B0044601210420FFF7ABF80121BF
:102BD0004804FFF787F818208DF817000420ADF897
:102BE000140003208DF8160005A91E48FEF708FB07
:102BF00004208DF817000820ADF8140003208DF88C
:102C0000160005A91748FEF7FBFA01940020ADF85D
:102C100010000C20ADF80E000020ADF80C00ADF84F
:102C20000A00ADF8080001A90F48FFF751FF012184
:102C30000D48FFF796FE012240F225510A48FFF7A2
:102C400022FF26208DF8000001208DF803000020CF
:102C50008DF801008DF802006846FEF7FBFC06B017
:102C600010BD000000080140004400402DE9F04183
:102C700007460C46154600260DE014F8011B3846A1
:102C8000FFF797FF00BF40213846FFF7C5FE002839
:102C9000F9D0701C86B2AE42EFDBBDE8F08110B512
:102CA0000446FEF7BDFB7820FEF782FB0020FEF70E
:102CB0007FFB2046FEF77CFBFEF7DAFB10BD10B56C
:102CC0000446FEF7ADFB7820FEF772FB4020FEF7CE
:102CD0006FFB2046FEF76CFBFEF7CAFB10BD70B51C
:102CE00003460024002500BF01F07F05C90909B192
:102CF00045F080051046561CB2B21D54641C09B143
:102D0000052CF1DB501E80B2024670BD00B587B0C5
:102D100001218803FFF706F801210420FFF702F8DC
:102D20002448FFF72BFE4FF40070ADF81800032085
:102D30008DF81A0018208DF81B0006A91E48FEF712
:102D40005FFA4FF48060ADF8180004208DF81B0086
:102D500006A91948FEF754FA25208DF80400022030
:102D60008DF8050000208DF8060001208DF8070081
:102D700001A8FEF76FFC4FF4165002900020ADF84A
:102D80000C00ADF80E00ADF81000ADF814000C20EA
:102D9000ADF8120002A90748FFF79AFE012240F29F
:102DA00025510448FFF76FFE01210248FFF7D9FDC6
:102DB00007B000BD003801400008014030380A2843
:102DC00001D2012070470020704706E04FF47A716D
:102DD00000E0491E0029FCD1401E0028F6D17047B2
:102DE00010B56FF00400FFF733F90A4800680A498C
:102DF000B0FBF1F0094908700846007800EB40018B
:102E0000C1EBC0104FF6FF7101EAC0000449088011
:102E100010BD00000006002000127A00FC05002012
:102E2000FE0500200146114A12884A434FF0E02374
:102E30005A6100229A611A46126942F001021A612F
:102E400000BF4FF0E022106900F001021AB100F457
:102E50008032002AF5D04FF0E022126922F0010200
:102E60004FF0E0231A6100229A617047FE050020AE
:102E70000146114A12784A434FF0E0235A6100227A
:102E80009A611A46126942F001021A6100BF4FF0BE
:102E9000E022106900F001021AB100F48032002A29
:102EA000F5D04FF0E022126922F001024FF0E0234A
:102EB0001A6100229A617047FC05002008B50121C3
:102EC0000420FEF72FFF10208DF803000220ADF83C
:102ED000000003208DF8020069460448FEF790F9CF
:102EE00002210248FEF720FA08BD00000008014058
:102EF00000250024FEF723FAFEF770F803E04FF4F4
:102F0000FA70FFF78FFFFEF717FD0028F7D1FEF7E5
:102F1000B1FEE1E0681C80B20546B0F57A7F04DBC3
:102F2000FEF7FCFD0025FEF723F80020FEF72EF843
:102F3000044614B12046FEF781FD0A20FFF772FF18
:102F40006648007801285DD102216548FEF7EEF958
:102F5000FEF71EFB002852D162480078312803D0CA
:102F60006048007832280AD102215D48FEF7DCF97A
:102F700001205D4908700520FEF7F1FA3FE05A484C
:102F8000007801283BD1002057490870554908783E
:102F9000C11700EB91718910A0EB8101012906D1C5
:102FA0000120FEF7DCFA01205049087027E04D4966
:102FB0000878C11700EB91718910A0EB81010229FB
:102FC00006D10220FEF7CBFA01204949087016E02D
:102FD00044490878C11700EB91718910A0EB810179
:102FE000032906D10320FEF7BAFA012041490870EF
:102FF00005E00420FEF7B3FA01203F4908700020E5
:10300000364908703D493E48FFF778F8012863D1FA
:1030100036480078A8B135480078401C334908701C
:1030200040F2E2413748FFF7F6FB304800780628C7
:1030300007DD4FF4FA713348FFF7EDFB00202B4911
:1030400008702B480078A8B129480078401C28490E
:1030500008704FF448712B48FFF7DFFB24480078D5
:10306000062807DD4FF496712648FFF7D6FB0020AF
:103070001F4908701F480078A8B11E480078401CFE
:103080001C4908704FF496611E48FFF7C8FB1948A9
:103090000078062807DD4FF4C8711A48FFF7BFFB18
:1030A00000201449087014480078A8B1124800782C
:1030B000401C114908704FF496611248FFF7B1FBAC
:1030C0000D480078062807DD4FF496710D48FFF78C
:1030D000A8FB0020084908701CE700000100002040
:1030E00000080140000000201906002014060020FE
:1030F00015060020160600201706002027060020CF
:103100001806002000080040000000000000000039
:10311000002F000000000700070000147F147F1438
:1031200000242A7F2A1200626408132300364955BE
:10313000225000000503000000001C224100000096
:1031400041221C000014083E08140008083E08082C
:10315000000000A060000008080808080000606087
:103160000000002010080402003E5149453E0000C6
:10317000427F4000004261514946002141454B31A8
:10318000001814127F10002745454539003C4A4974
:1031900049300001710905030036494949360006E6
:1031A0004949291E0000363600000000563600004E
:1031B00000081422410000141414141400004122C9
:1031C000140800020151090600324959513E007CA1
:1031D0001211127C007F49494936003E414141228B
:1031E000007F4141221C007F49494941007F090974
:1031F0000901003E4149497A007F0808087F000024
:10320000417F4100002040413F01007F08142241DE
:10321000007F40404040007F020C027F007F040896
:10322000107F003E4141413E007F09090906003EF2
:103230004151215E007F091929460046494949311B
:103240000001017F0101003F4040403F001F20403E
:10325000201F003F4038403F0063140814630007FC
:103260000870080700615149454300007F41410053
:1032700000552A552A55000041417F0000040201F3
:1032800002040040404040400000010204000020D1
:1032900054545478007F484444380038444444200F
:1032A00000384444487F00385454541800087E09BC
:1032B00001020018A4A4A47C007F08040478000084
:1032C000447D4000004080847D00007F1028440041
:1032D0000000417F4000007C04180478007C080452
:1032E000047800384444443800FC2424241800188E
:1032F000242418FC007C080404080048545454207A
:1033000000043F444020003C4040207C001C204002
:10331000201C003C4030403C004428102844001C45
:10332000A0A0A07C004464544C441414141414143D
:10333000000000000000000000000000000000008D
:10334000000000F800000000000000333000000022
:1033500000100C06100C0600000000000000000029
:1033600040C07840C0784000043F04043F0404009B
:10337000007088FC08300000001820FF211E0000AB
:10338000F008F000E018000000211C031E211E00C0
:1033900000F00888700000001E2123241927211046
:1033A00010160E00000000000000000000000000E9
:1033B000000000E018040200000000071820400090
:1033C00000020418E0000000004020180700000080
:1033D000404080F0804040000202010F01020200E4
:1033E000000000F0000000000101011F01010100C8
:1033F000000000000000000080B07000000000002D
:1034000000000000000000000001010101010101B5
:10341000000000000000000000303000000000004C
:103420000000000080601804006018060100000021
:1034300000E010080810E000000F102020100F001E
:10344000001010F8000000000020203F20200000A5
:1034500000700808088870000030282422213000FD
:1034600000300888884830000018202020110E0005
:103470000000C02010F8000000070424243F2400AE
:1034800000F80888880808000019212020110E0083
:1034900000E0108888180000000F112020110E0095
:1034A00000380808C83808000000003F000000008D
:1034B0000070880808887000001C222121221C004E
:1034C00000E010080810E0000000312222110F0077
:1034D000000000C0C000000000000030300000000C
:1034E000000000800000000000008060000000007C
:1034F0000000804020100800000102040810200095
:1035000040404040404040000404040404040400DF
:103510000008102040800000002010080402010074
:10352000007048080808F000000000303601000074
:10353000C030C828E810E0000718272423140B0027
:103540000000C038E0000000203C230202273820A1
:1035500008F8888888700000203F202020110E0085
:10356000C03008080808380007182020201008007C
:1035700008F808080810E000203F202020100F0065
:1035800008F88888E8081000203F20202320180031
:1035900008F88888E8081000203F20000300000099
:1035A000C03008080838000007182020221E02003A
:1035B00008F808000008F808203F210101213F20F9
:1035C000000808F8080800000020203F2020000024
:1035D00000000808F8080800C08080807F00000014
:1035E00008F888C028180800203F2001263820004D
:1035F00008F8080000000000203F202020203000B4
:1036000008F8F800F8F80800203F003F003F2000CD
:1036100008F830C00008F808203F200007183F00D5
:10362000E01008080810E0000F10202020100F0004
:1036300008F808080808F000203F210101010000F7
:10364000E01008080810E0000F18242438504F003C
:1036500008F8888888887000203F2000030C3020FC
:1036600000708808080838000038202121221C003A
:10367000180808F8080818000000203F2000000083
:1036800008F808000008F808001F202020201F006C
:103690000878880000C83808000007380E010000CC
:1036A000F80800F80008F800033C0700073C030096
:1036B000081868808068180820302C03032C3020FC
:1036C0000838C800C83808000000203F200000006B
:1036D00010080808C83808002038262120201800C3
:1036E000000000FE020202000000007F4040400097
:1036F000000C30C000000000000000010638C000CF
:1037000000020202FE000000004040407F00000076
:10371000000004020202040000000000000000009B
:103720000000000000000000808080808080808099
:103730000002020400000000000000000000000081
:1037400000008080808000000019242222223F2077
:1037500008F8008080000000003F112020110E00BA
:103760000000008080800000000E11202020110049
:10377000000000808088F800000E112020103F20FB
:103780000000808080800000001F2222222213007F
:10379000008080F0888888180020203F20200000CA
:1037A0000000808080808000006B9494949360007F
:1037B00008F8008080800000203F210000203F208A
:1037C00000809898000000000020203F202000008A
:1037D000000000809898000000C08080807F00007A
:1037E00008F8000080808000203F24022D30200057
:1037F000000808F8000000000020203F2020000002
:103800008080808080808000203F20003F20003F1B
:103810008080008080800000203F210000203F2029
:103820000000808080800000001F202020201F00DA
:10383000808000808000000080FFA12020110E0009
:103840000000008080808000000E112020A0FF80FA
:10385000808080008080800020203F2120000100A7
:1038600000008080808080000033242424241900FC
:10387000008080E0808000000000001F2020000009
:103880008080000000808000001F202020103F204A
:10389000808080000080808000010E3008060100DA
:1038A00080800080008080800F300C030C300F007F
:1038B00000808000808080000020312E0E312000AA
:1038C000808080000080808080818E7018060100DA
:1038D00000808080808080000021302C22213000F8
:1038E00000000000807C020200000000003F404019
:1038F00000000000FF00000000000000FF000000CA
:103900000002027C800000000040403F00000000F8
:103910000006010102020404000000000000000093
:103920000400000800000000000000020001000088
:103930001000000054390008000000202406000098
:103940006C0100089C3C000824060020EC060000E6
:10395000D00100085200011004202024012018BFCB
:10396000642434282422202000100804023F454407
:10397000444242424178212302820132FE06400540
:103980000200004001527F082143300CF8F8484CF7
:103990004F4B4A4848F8F8534004FFFF440113FFD7
:1039A000FF6010052424E4E46210203010FFFF10B3
:1039B000F0F000081C1F0B0C0D4F6E341C0F236021
:1039C0007F3F0080C060F8FF0702352006E0703CB2
:1039D0001C085020077F7F0406033F621278823064
:1039E00005404244587020045048C61E73404401AC
:1039F000115F100E000808E8292E28E80808C80CF6
:103A00000B06217F100A0949897F00000F408006BC
:103A1000112110053000FF20011105003510222C66
:103A2000200004040201FF8040300E0106182040EF
:103A30008000000484844424548F14244484840427
:103A40000000413900003C4040424C4040700409B5
:103A5000310001A336360E240804040484E43C2714
:103A60004512E40C12005F1182110131856134505E
:103A700004C03FC00A1007804020100C03393004F6
:103A8000030C1080D0040000FE61B2336F059D006E
:103A900011A018074242C27E42C231290F61E02ABA
:103AA0003F2606417000A8070202C202020280AA55
:103AB0007F801010201808EAACA8A8AFA8A8ACEA2C
:103AC00008281891123E2F440802FF020212221EFB
:103AD0007D051C6010072010E82427A4011BB4AC4E
:103AE000FF11C033300FBE3004444847C0200DFEE4
:103AF000225A864020504C434C5020E14C0DFF048C
:103B00000807404458414E6058470003051BC01049
:103B1000051060028C452292012129100A04047EBE
:103B200001407E42427E0223427E401AFC3B200539
:103B3000FC25262408141A040040308F80844C553C
:103B4000252525554C80808000807000FF1008FEE0
:103B50006512FA04180EFE00806018070810FF5066
:103B6000484641A4100BFF00100C055555D5057FA4
:103B70000610125505140C001010108AA96B35257B
:103B800025ABE9080C100B00109453321E32521072
:103B9000006F4F427EA003424901293F10110008E7
:103BA000CC4A49484ACC18007F88888482E01E1C91
:103BB00005121252924003427E10493A10091090A9
:103BC00011161010D010D0240D30100F08484041AD
:103BD0005E40704E41802D5A0318092202FE0202F7
:103BE000625A46E5101E0818080744348E8146289C
:103BF0001028468180001090FF9010E2222A2AF2BD
:103C00002A26225F2C060601FF000121036E7F2277
:103C1000030006170C12120C00013540453F754099
:103C20001C0444485010040405207F504844400DB3
:103C30001EA0031404100C24FC2BA5F6021624402D
:103C4000196C1006FA4A4A4A4F041AFA49056100EB
:103C500053E282015948733F40015678001C042406
:103C6000242F44053805E42F2424400C0C2000FFA9
:103C700011090719090749917F40031D43032005D6
:103C800001020304043C080607080902040665054E
:0C3C9000A00500A24A0420211CE58600CB
:0400000508000131BD
:00000001FF
